:020000040000FA
:06000000F26A2CEF08F08B
:020006000000F8
:08000800E9CFDCFFEACFDCFFC9
:100010009EB201D0FF009E92162E08D0142A0A0E1E
:10002000166E172E03D0152A0A0E176EDDCFEAFFC3
:06003000DDCFE9FF110025
:0A00360020042E043B044904FFFFE0
:10004000FFFFFFFFFFFFFFFFFFFFFFFFFFFFFFFFC0
:10005000FFFFFFFFFFFFFFFFFFFFFFFFFFFFFFFFB0
:10006000FFFFFFFFFFFFFFFFFFFFFFFFFFFFFFFFA0
:10007000FFFFFFFFFFFF1868196A12921298020132
:10008000DC0E016F050E026F6D6A160E6F6E6B68E7
:10009000120000C0DCFF01C0DCFF02C0DCFF03C0B7
:1000A000DCFF04C0DCFF84D86D861288030E006E6E
:1000B000020E016EF40E026E000E036E09EC05F0E6
:1000C00074EC05F0DDCF04F0DDCF03F0DDCF02F0FE
:1000D000DDCF01F0DDCF00F0120018C000F0E8EC39
:1000E00005F012A402D0F6EC06F018686D6A1298BA
:1000F0001292120013C018F0196A12960201DC0E57
:10010000016F050E026F74EC05F044DA11BAFBD7EB
:1001100074EC05F075EC03F0F6D700C0DCFFEFA639
:1001200044D0040EEBCF00F0050EEB500010D8A425
:100130003CD0010EEBCFE1FF000EEFB4040FE1263F
:10014000040EE26EEF9CE7503C0B340AD8B4EF8CFF
:10015000EF9AE650030B006E050E00C0EBFF040E95
:10016000E7CFEBFFE6500010D8B4EF8AE650EF344B
:10017000060B090FEBCFE5FFFF0FEBCFE5FF020EFC
:10018000EBCFE5FF030EEB50E76EE78E010EEFB00D
:10019000030EEFB2020EEF1AEF96EFB8EF86EF986C
:1001A000EF74060EEB6A010FEB6ADDCF00F0120070
:1001B00000C0DCFF01C0DCFF12921280706A716A1D
:1001C000726A736A746A756A766A776A786A796A33
:1001D0007A6A7B6A7C6A7D6A7E6A7F6A04EE00F0D6
:1001E000200E006EEE6A002EFDD70401380E206F3F
:1001F000000E216F080E226F236B246B256B560EA9
:10020000286F040E296F5E0E2A6F040E2B6F660E88
:100210002C6F040E2D6F180E2E6F2F6B080E306F83
:10022000080E316F326B336B346B6E0E356F040E0C
:10023000366F760E376F040E386F7E0E396F040EF0
:100240003A6F380E3B6F100E3C6F400E3D6F3E6BA9
:100250003F6B406B860E436F040E446FC60E456FB6
:10026000040E466F060E476F050E486F180E496F55
:10027000020E4A6F180E4B6F400E4C6F4D6B4E6B5B
:100280004F6B460E506F050E516F860E526F050E66
:10029000536FC60E546F050E556F04EE20F03DDF10
:1002A0003CDF6E6A686A696A6D8CE90E6D166D8650
:1002B0006D9C68A602D06896FCD7160E706E118CE5
:1002C000DDCF01F0DDCF00F012000401380E3B6FEE
:1002D000100E3C6F400E3D6F3E6B3F6B406B860EC9
:1002E000436F040E446FC60E456F040E466F060E34
:1002F000476F050E486F180E496F020E4A6F180EB1
:100300004B6F400E4C6F4D6B4E6B4F6B460E506FEC
:10031000050E516F860E526F050E536FC60E546F49
:10032000050E556F04EE3BF0F8DEF7DE160E706E2C
:100330001E0E716E1282120000C0DCFFEFA64CD0C0
:10034000EFBE4AD0050EEBCF00F0060EEB500012C8
:10035000D8A406D0010EEBB402D0EFAC3DD0EF9C98
:10036000020EEBCFE1FF030EEFB4040FE126040E03
:10037000E26EEF34060B080FEBCFE5FFFF0FEBCF7C
:10038000E5FF050EEBCFE5FF060EEB500809E76E23
:10039000010EEBB0E78CEB70E78E010EEBA20AD0FA
:1003A000EB94030EEBCF00F0050EEB50001A02E1C8
:1003B000010EEB84010EEFB0030EEFB2020EEF1A46
:1003C000EF96EFB8EF86EF98EF74EF9AEFBCEF8AF5
:1003D000050EEB6A010FEB6ADDCF00F01200F00EA4
:1003E0000116030E0112EFAC08D0060EEB52D8A492
:1003F00004D00752EB52D8B40184EFBA26D0019250
:1004000001B823D00190EF34060B080FEBCFE1FFCA
:10041000010FEBCFE2FF060EEB50E126070EEB508B
:10042000E222060EEB2A070ED8B0EB2A040EEB06EA
:10043000EBCF00F0050ED8A0EB06EB500012E7CF93
:1004400000F0D8A402D0EF8A68DE120002C0DCFF00
:1004500003C0DCFFF00E0116030E0112EFBA2ED01E
:10046000019201BAEF8E01B829D0019001AAEF9E46
:10047000EF34060B070FEBCFE1FF010FEBCFE2FFED
:10048000050EEB50E126060EEB50E22200C0E7FF1E
:10049000050EEB2AEBCF02F0060ED8B0EB2AEBCF1D
:1004A00003F0030EEB500218D8A407D0040EEB5053
:1004B0000318D8A402D0EF8AEF9E3EDFDDCF03F011
:1004C000DDCF02F01200F00E0116030E0112EFBC98
:1004D00014D0019201B811D0EF9E01BC0AD0EFBA3E
:1004E00008D0050EEB52D8A407D0060EEB52D8A4C4
:1004F00003D00190EF8CEF8A1FDF120002C0DCFFF7
:10050000F00E0116030E0112050EEBCF02F0060EDF
:10051000EB500210D8A407D00184EF50180B180A32
:10052000D8B4018609D0EFA607D0019201B804D053
:1005300001900184EF9E00DFDDCF02F0120004EE97
:1005400020F04DD77080120004EE2EF07FD704EE1D
:100550002FF0EF90120004EE2FF0EF80120004EE67
:100560002EF0CCD704EE2EF0AED704EE3BF037D70A
:1005700004EE49F06BD704EE4AF0EF90120004EE5F
:100580004AF0EF80120004EE49F0B8D700C000F244
:10059000118E1200119A68A206D0118A12866A5032
:1005A0006A6A1912120068A003D0118A01DE1200D3
:1005B00068AC02D0689C128668A625D06CCF00F08B
:1005C00068961286000EF76E000EF86E00403E0B25
:1005D000360FF66E000EF722F8220900F5CFE9FF7C
:1005E0000800F5BE10D0F5CFEAFF118AEF300018F1
:1005F000020B080ED8A4100EEF1200B402D08DDD4D
:1006000012009ADE120068AA03D0689A118A1200BA
:1006100068A803D06898118A120068A403D068946F
:10062000118A1200120012A817D012A607D0129633
:100630000201E80E016F030E026F0ED0020100509E
:10064000015F000E025B04E301510211D8A404D043
:0A0650006D6A12981292FF0012006A
:06065A0001013E0E106FCD
:10066000070E116F000E126F010E0F6F1200016A5C
:10067000AFEC02F001B602D019D8F9D712006D988C
:10068000016AAFEC02F001B402D010D8F9D7ABEC9C
:1006900002F01200200E016EA4EC02F001A002D0C4
:1006A00005D8F8D70101264B272B120000C008F10E
:1006B00001C009F102C00AF103C00BF104C00CF142
:1006C00005C00DF106C00EF1FC041F0B016E010107
:1006D0000F6F01EE10F0FDCFEEFFFECFEEFFFFCF6C
:1006E000EEFF0600012EF7D7120011AC02D0119CCC
:1006F00026D0010101EE0FF00F51016E030DF350F2
:10070000E926014E08D00500ED50FF6EED50FE6E5B
:10071000ED50FD6EF6D708C100F009C101F00AC125
:1007200002F00BC103F00CC104F00DC105F00EC1C5
:1007300006F01251FB6E1151FA6E1051F96E010163
:10074000246B256B12A403D0F6EC06F01294080E6D
:10075000026E016A9FEC02F001A002D0A7DFF9D778
:1007600001A402D0080E026E01EE1CF0025008082F
:10077000E92600C0EFFF022EECD70101266B276BA4
:10078000000EFB6E070EFA6E1D510C08D8A023D088
:100790001D35E834FC0BA20FD8B0FA2AD8B0FB2ADA
:1007A000F96EEBEF03F0EBEF03F0EBEF03F0EBEFA1
:1007B00003F0EBEF03F0CEEF04F032EF04F0EBEFD9
:1007C00003F0DDEF04F0D6EF04F0E5EF04F0E2EF24
:1007D00004F0EBEF03F06D98A2EC02F0B8D74FDF16
:1007E00001010350235DD8A006D0D8A408D0025040
:1007F000225DD8B004D022C102F023C103F0025020
:100800000310D8B412D004C0F6FF05C0F7FF06C02D
:10081000F8FF0800F5CF00F03DDF042A000E0522A6
:1008200006220206D8A00306EAD701012251070BCF
:10083000D8A408D022512619D8A404D023512719AE
:10084000D8B485D7016AB2EC02F001A280D72EDFBE
:10085000F9D715DF400E016EB2EC02F001A077D798
:1008600025DFF8D701011F51FF0FD8A40DD01E536B
:10087000D8A4B1D7F00E046E0F0E056E000E066EF2
:10088000120E026E036AABD7FF0FD8A40DD01E5311
:10089000D8A4A1D7020E046E100E056E000E066ECF
:1008A000200E026E036A9BD7FF0FD8A494D71E05B3
:1008B000D8B45DD01E510308D8A08DD71E51D8A43E
:1008C000FF0FE824520FF66E100ED8B0010FF76E2E
:1008D000000ED8B0010FF86E0900F5CF04F0080043
:1008E000F5CF05F0220E0426100E0522000E066E2E
:1008F000000E062204C0F6FF05C0F7FF06C0F8FF91
:100900000800F5CF02F0036A1E51D8B468D723530C
:10091000D8A405D00250225DD8A022C102F0AFDEDB
:100920000250D8B482D7F5CF00F0B4DE024E7DD7A6
:10093000030E006EAFDE024E78D7020E0426000EC4
:100940000522062204C0F6FF05C0F7FF06C0F8FF27
:100950000800F5CF00F09EDE024E67D7006A9ADEEF
:10096000024E63D7042A000E05220622EBD787DE4B
:10097000D6EC06F012840050026E020F006E8ADE82
:10098000030E006E87DE025205E00206EDEC06F073
:1009900081DEF9D7F6EC06F0129447D770DE400EF0
:1009A000B2EC02F064DE1EC16EFFD1D601011E5111
:1009B000246F006E65EC01F04CD724C100F06ADEB4
:1009C0005EDE33D71EC125F144D725C100F062DEBB
:0409D00056DE2BD7ED
:0C09D400136A0101B20E006F010E016FEA
:1009E000010EE8CFB2F16D0E026F010E036F000E23
:1009F000E8CF6DF1280E046F010E056F000EE8CFF1
:100A000028F1A50E066F000E076F000EE8CFA5F0C7
:100A1000120000C0DCFF01C0DCFF05C0DCFF040EDB
:100A2000056E11EE00F0E6CFE9FFE6CFEAFFEF52E8
:100A300005E0052EF8D700000000FF00DDCF05F02F
:100A400000C0E1FF01C0E2FF00C0E6FF01C0E6FF19
:100A500002C0E6FF03C0E6FF04C0E6FF05C0E6FFF4
:100A600006C0E6FF07C0E6FFEE2A000E0006015AA8
:100A7000E55200C0EEFF01C0EEFF00C0EEFF01C076
:100A8000EEFFE1CFEEFFE2CFEEFF02C0EEFF03C0CC
:100A9000EEFFDDCF01F0DDCF00F0120008C0DCFF7B
:100AA00009C0DCFF0AC0DCFF0BC0DCFF0CC0DCFFB0
:100AB0000DC0DCFF0EC0DCFF0FC0DCFF10C0DCFF90
:100AC00013D8DDCF10F0DDCF0FF0DDCF0EF0DDCF8E
:100AD0000DF0DDCF0CF0DDCF0BF0DDCF0AF0DDCF78
:100AE00009F0DDCF08F0120000C0DCFF01C0DCFF20
:100AF00002C0DCFF03C0DCFF04C0DCFF05C0DCFF7C
:100B000006C0DCFF07C0DCFFE9CF00F0EACF01F050
:100B100001EE00F01344E926EE50EFCFEAFFE96E54
:100B2000FC501F0B026EEE6E00C0EEFF01C0EEFF28
:100B3000E1CFEEFFE2CFEEFFD9CFEEFFDACFEEFF4F
:100B4000FD50EE6EFE50EE6E0600022EF9D7132A0F
:100B500013500308D8A0136A01EE00F01344E926ED
:100B6000EE50EFCFEAFFE96EEF52F1E0EECF01F089
:100B7000EECF02F0EECF03F0F29EFC6AEECFE1FF83
:100B8000EECFE2FFEECFD9FFEECFDAFFF28E0144D7
:100B9000FF0FE926000EEA220500ED50FE6EED5033
:100BA000FD6E012EF9D702C0E9FF03C0EAFFDDCFD9
:100BB00007F0DDCF06F0DDCF05F0DDCF04F0DDCFAF
:100BC00003F0DDCF02F0DDCF01F0DDCF00F0120049
:100BD00000500308D8A00DD001EE00F00044E92633
:100BE000EE50EFCFEAFFE96EEF6A0050135CD8B425
:100BF000AED7120001EE00F01344E926EE50EFCF1D
:080C0000EAFFE96EEF6AA3D7D9
:080C08000001A069120001C007
:100C1000DCFF016AB5EC02F001A009D0DDCF01F0E4
:100C200074EC05F011B07FD001C0DCFFF2D7DDCF4E
:100C300001F01200ECDF00C001F0E9DF1200E7DF95
:100C400000C002F0E4DF00C001F0E1DF1200DFDFEE
:100C500000C003F0DCDF00C002F0D9DF00C001F00B
:100C6000D6DF120011A403D04EEC05F0FBD711849F
:100C70000001A0511318D8B41186120011941196D6
:100C8000120001C0DCFF016AB8EC02F001A007D03D
:100C9000DDCF01F074EC05F001C0DCFFF4D7DDCF4F
:100CA00001F0120000C0DCFF01C000F0EADFDDCF80
:100CB00000F0E7DF120000C0DCFF02C000F0E1DF5F
:100CC00001C000F0DEDFDDCF00F0DBDF120000C08E
:100CD000DCFF03C000F0D5DF02C000F0D2DF01C0AE
:100CE00000F0CFDFDDCF00F0CCDF120000C0DCFF72
:100CF00001C0DCFF02C0DCFF03C0DCFF230E006E7E
:100D0000020E016E220E026E0D0E036E09EC05F04E
:100D1000DDCF03F0DDCF02F0DDCF01F0DDCF00F05D
:100D2000120013C0A0F0FC6A22EE22F0119011A272
:100D300003D01192F6EC06F074EC05F011B0F3D785
:100D400012A2FAD7FC6A22EE22F011A601D096DF99
:100D5000FC2A440EFD6E0D0EFE6E000EFF6E74EC4E
:100D600005F011B0E0D753DF00500508D8A01CD023
:100D700000C0DCFF01C0DCFF016AD89000360136FC
:100D80007C0E0024F66E0F0E0120F76EF86ADDCFA0
:100D900001F0DDCF00F00900F5B006D0F5500900F4
:0A0DA000F5CFFAFFFB6AF96EDAD70F
:060DAA00120001C0DCFF95
:100DB00002C0DCFF7CEC07F0016A026A85EC07F0F8
:100DC00088EC07F000502808D8A0006A00C0A2F004
:100DD000DDCF02F0DDCF01F01200006A0001A25366
:100DE000D8B403D0A20788EC07F0120083EF07F015
:100DF00001C0DCFF02C0DCFF7CEC07F0010E016EDD
:100E0000026A85EC07F00001280EA26FDDCF02F028
:100E1000DDCF01F012000001A253D8B403D0A20725
:100E200096EC07F0120000C0DCFF01C0DCFF02C03E
:100E3000DCFF016A026A85EC07F00001A251280874
:100E4000006E96EC07F0B8EC07F083EC07F0DDCF0E
:0C0E500002F0DDCF01F0DDCF00F0120059
:040E5C00120032EC62
:100E600006F0010E006E41EC06F0120032EC06F0C6
:100E7000020E006E41EC06F04C0E006E41EC06F0E6
:100E8000010E006E41EC06F0390E006E41EC06F0EA
:100E9000120007EC06F000C002F0F8EC06F0118238
:100EA000025206E007EC06F00BEC07F00206F8D75A
:100EB00013EC07F011921200D6EC06F0118200C07C
:100EC00001F032EC06F0030E006E41EC06F001C0BA
:100ED00000F0D7DE015206E0EDEC06F041EC06F042
:100EE0000106F8D73EEC06F0F6EC06F0119212007F
:100EF0000001A36B1198120011A803D04EEC05F06D
:100F0000FBD7118812001198120001C0A3F0120043
:100F1000A6A203D04EEC05F0FBD7A3C0A9FFA66A9A
:100F2000A6800001A32BA8CF00F0120001C0DCFFB7
:100F3000A6A203D04EEC05F0FBD7A3C0A9FFA66A7A
:100F4000A6800050A8180FE000C0A8FFA66AA684DB
:100F5000F2CF01F0F29E550EA76EAA0EA76EA682E2
:100F6000000001BEF28E0001A32BDDCF01F01200C4
:0C0F7000A6A203D04EEC05F0FBD7120047
:040F7C00440D5E0EB4
:100F80006C0E920EB80E880F6DDE040E006E79DEC8
:100F9000046A200E076E080E066E04C000F00050B2
:100FA0000508D8B005D0010E016E026A036A14D09C
:100FB0000050016E026AD890013602367C0E012480
:100FC000F66E0F0E0220F76EF86A0900F5CF01F0F9
:100FD0000900F5CF02F0036A011E01320532042A2E
:100FE000062EDBD705C000F04CDE072ED4D712004A
:100FF00012011001FF00FF08C016C905010002031D
:1010000000010902200001010080FA090400000229
:10101000FF00FF00070501024000010705810240B3
:101020000001040309041403456D626564204C4CFF
:101030004340035265616479426F6172642D3032BE
:101040002074656D706C617465206669726D77617E
:081050007265000004000F00AE
:08105800800EF16EF06A9D6A42
:10106000A06A9E6AA16A9F6AA26AD09E116A126AE9
:1010700083EC08F06FEC08F0EAEC04F078EC07F091
:10108000D5EC06F004EC06F03BEC00F02DEC03F0A0
:081090005FEC08F07DEF08F0B1
:0810980015C0A1F074EC05F095
:1010A00012A002D01290118015500001A11906E083
:0E10B000A12B0A0E006E13EC03F0F0D7EFD761
:0210BE00146AB2
:1010C000156A0A0E166E0A0E176EEF0ECB6E240E00
:0E10D000CA6ECC6A9E929D82F28CF28E120045
:0210DE00C26AE4
:1010E0000F0EC16E070EB46EF18E896A926A8A6A1B
:0A10F000936A8B6A946A846A120006
:0610FA0049EC00F076EC69
:0611000006F04CEF08F0C0
:0611060020EE5FF0120074
:020000040030CA
:02000000E13FDE
:02000200F6FE08
:02000400FFF803
:020006009AFF5F
:02000800FFFFF8
:02000A00FFFFF6
:02000C00FFFFF4
:0200000400F00A
:0600000005524459325480
:00000001FF
